:020000004A2A8A
:0E000600213083120313FD00FD0B07280800B4
:06001400000000000800DE
:10001A000F3083120313FC004730FD00FD0B132839
:0A002A00FC0B132800000000080082
:1000340083120313CC1B20288810212888144C1BFE
:100044002528081026280814CC1A2A2888122B28B8
:1000540088164C1A2F280813302808173518342806
:1000640088173528881308160A200812CC193C284A
:1000740088103D2888144C19412808104228081477
:10008400CC1846288812472888164C184B28081381
:100094004C28081735185028881751288813081633
:1000A4000A200812351C58280D205928032008005E
:1000B40083120313F801F9011030FC00710DF80DDF
:1000C400F90D7408F8027508031C750FF90203187A
:1000D40072287408F80775080318750FF9070310D8
:0A00E400F00DF10DFC0B6028080080
:1000EE008312031335104708CC001A20351408006C
:0E00FE008312031339088A00380882000800B4
:10010C0083120313CA0105304A02031894284A08C3
:10011C004907840020308000CA0A89284A08490708
:10012C0084008001CA034A084907CB000A30F40056
:10013C00F5014708F0004808F1005A207808F00053
:10014C007908F1003030F0074B088400700880000B
:10015C000A30F400F5014708F0004808F1005A2075
:10016C007008C7007108C80000307106031DC02854
:10017C0000307006031DC328C528CA03992808003F
:10018C0083120313FB01FA01F9018030F800F10C22
:10019C00F00C031CDA287408F90775080318750F9E
:1001AC00FA070318FB0A0310F01FE2287408FA0779
:1001BC0075080318750FFB07FB0CFA0CF90CF80CFF
:1001CC00031CCD287B08F3007A08F2007908F100B3
:0601DC007808F0000800A5
:1001E2008316031387010730831292000C309D009F
:0E01F200FA30831692007D3083129B000800C5
:10020000013083120313860506080319082986178F
:020210000800E4
:10021200831203131F151F1D0F290C291E08F1003D
:0E022200F00183161E08F0040030F1040800FD
:1002300083120313C301C4013E08C5003F08C60072
:1002400080303F06F00080307002031D2929003005
:100250003E02031837290130C3000030C4003E08B5
:10026000003CC5003F08031C013EC601C60245080C
:10027000C7004608C8004008C90086200630C100F3
:100280000030C2004208003C031D48294108003CE0
:100290000318632941084007F20001304102F000D1
:1002A0000030031C013E4202F10070084007840048
:1002B0000008F00072088400700880000130C1025C
:1002C000031CC203422940088400203080004308F8
:1002D000440403198129C101C20141084007840077
:1002E0000008203A031D7829C10A0319C20A6D29A2
:1002F0000130C102031CC2034108400784002D30B5
:040300008000080071
:100304008316031308128813081388120810881020
:1003140083120812881388100810881208130D20FD
:100324000D200D208816081708160A2008120D2023
:1003340008160A2008120D2008160A2008120D209B
:10034400081308160A2008120D2008160A2008129D
:100354008812881408160A2008120D20881008171D
:1003640008160A200812081308160A2008120D207D
:1003740008160A200812081708160A2008120D2069
:10038400081308160A200812881408148816081777
:0C03940008160A2008120D20351408007D
:0A03A000831203133E0895000800C5
:1003AA00E729803083120313BE00FA29C030BE0049
:1003BA00FA299430BE00FA29D430BE00FA298030D6
:1003CA00BE00FA29831203133E08013A0319D629FB
:1003DA003E08023A0319DB293E08033A0319DE29CB
:1003EA003E08043A0319E129E4293F03F0003E08D4
:1003FA00F0077008BE007008CC001A203510C10141
:10040A0041084007840000080319132A41084007DD
:10041A0084000008C7007720C10A052A351408009D
:10042A0083120313BC01BD0100303D02031D1F2AC4
:10043A0028303C020318332ABA01BB0107303B02B9
:10044A00031D292AD0303A0203182F2ABA0A03199F
:0E045A00BB0A232ABC0A0319BD0A192A08008E
:100468007F208A110A128000840AB80A0319B90A7F
:08047800F003031D342A080003
:100480004130831203139F00CE3083169F00FF304C
:0404900085000800DB
:10049400543083120313A0004530A1004D30A20054
:1004A4005030A3003D30A4002030A5002030A60029
:1004B400A7015430A8004530A9004D30AA0050309F
:1004C400AB003D30AC002030AD002030AE00AF01B9
:1004D400822115220C30CC001A201522402215222C
:1004E4000130CC001A2083168701F1200021092154
:1004F400F430F4000130F500C620FF30F40003307E
:10050400F5005A207008B6007108B7007008BE00E4
:100514007108BF003030C00018218030F0008030F6
:1005240037067002031D982A3608193C0318BB2AA3
:1005340080303706F00080307002031DA32A1E307D
:1005440036020318BB2A0130BE000130BF00203040
:10055400C000D5210130BE000A30BF003030C000D9
:10056400D5211522FA30BE00BF01D0210615F7307F
:10057400860580303706F00080307002031DC42ADF
:10058400193036020318DD2A0615F73086050130C6
:10059400BE000130BF002830C000D5210130BE00AC
:1005A4000A30BF003030C000D52115227D30BE0096
:0C05B4000030BF00D0210021782ADF2A8F
:02400E004A2F37
:00000001FF
